{
  "contractName": "Election",
  "abi": [
    {
      "constant": true,
      "inputs": [
        {
          "name": "",
          "type": "address"
        },
        {
          "name": "",
          "type": "uint256"
        }
      ],
      "name": "voters2",
      "outputs": [
        {
          "name": "",
          "type": "bool"
        }
      ],
      "payable": false,
      "stateMutability": "view",
      "type": "function"
    },
    {
      "constant": true,
      "inputs": [],
      "name": "motionCount",
      "outputs": [
        {
          "name": "",
          "type": "uint256"
        }
      ],
      "payable": false,
      "stateMutability": "view",
      "type": "function"
    },
    {
      "constant": true,
      "inputs": [
        {
          "name": "",
          "type": "address"
        }
      ],
      "name": "votersByAddress",
      "outputs": [
        {
          "name": "",
          "type": "bool"
        }
      ],
      "payable": false,
      "stateMutability": "view",
      "type": "function"
    },
    {
      "constant": true,
      "inputs": [],
      "name": "tokenContract",
      "outputs": [
        {
          "name": "",
          "type": "address"
        }
      ],
      "payable": false,
      "stateMutability": "view",
      "type": "function"
    },
    {
      "constant": true,
      "inputs": [],
      "name": "votersCount",
      "outputs": [
        {
          "name": "",
          "type": "uint256"
        }
      ],
      "payable": false,
      "stateMutability": "view",
      "type": "function"
    },
    {
      "constant": true,
      "inputs": [
        {
          "name": "",
          "type": "address"
        }
      ],
      "name": "voters",
      "outputs": [
        {
          "name": "",
          "type": "bool"
        }
      ],
      "payable": false,
      "stateMutability": "view",
      "type": "function"
    },
    {
      "constant": true,
      "inputs": [
        {
          "name": "",
          "type": "uint256"
        }
      ],
      "name": "motions",
      "outputs": [
        {
          "name": "motionName",
          "type": "string"
        },
        {
          "name": "amount",
          "type": "uint256"
        },
        {
          "name": "addressTo",
          "type": "address"
        },
        {
          "name": "motionId",
          "type": "uint256"
        },
        {
          "name": "motionState",
          "type": "string"
        },
        {
          "name": "voteFor",
          "type": "uint256"
        },
        {
          "name": "voteAgainst",
          "type": "uint256"
        }
      ],
      "payable": false,
      "stateMutability": "view",
      "type": "function"
    },
    {
      "constant": true,
      "inputs": [
        {
          "name": "",
          "type": "uint256"
        }
      ],
      "name": "votersByIndex",
      "outputs": [
        {
          "name": "",
          "type": "address"
        }
      ],
      "payable": false,
      "stateMutability": "view",
      "type": "function"
    },
    {
      "inputs": [
        {
          "name": "_tokenContract",
          "type": "address"
        }
      ],
      "payable": false,
      "stateMutability": "nonpayable",
      "type": "constructor"
    },
    {
      "anonymous": false,
      "inputs": [
        {
          "indexed": true,
          "name": "_motionId",
          "type": "uint256"
        }
      ],
      "name": "votedEvent",
      "type": "event"
    },
    {
      "anonymous": false,
      "inputs": [
        {
          "indexed": true,
          "name": "_registeredAddress",
          "type": "address"
        }
      ],
      "name": "registrationEvent",
      "type": "event"
    },
    {
      "anonymous": false,
      "inputs": [
        {
          "indexed": true,
          "name": "_motionCount",
          "type": "uint256"
        }
      ],
      "name": "motionEvent",
      "type": "event"
    },
    {
      "constant": false,
      "inputs": [
        {
          "name": "_motionName",
          "type": "string"
        },
        {
          "name": "_amount",
          "type": "uint256"
        },
        {
          "name": "_addressTo",
          "type": "address"
        },
        {
          "name": "_motionState",
          "type": "string"
        }
      ],
      "name": "addMotion",
      "outputs": [],
      "payable": false,
      "stateMutability": "nonpayable",
      "type": "function"
    },
    {
      "constant": false,
      "inputs": [],
      "name": "addVoter",
      "outputs": [],
      "payable": false,
      "stateMutability": "nonpayable",
      "type": "function"
    },
    {
      "constant": false,
      "inputs": [
        {
          "name": "_motionId",
          "type": "uint256"
        },
        {
          "name": "_option",
          "type": "uint256"
        }
      ],
      "name": "vote",
      "outputs": [],
      "payable": false,
      "stateMutability": "nonpayable",
      "type": "function"
    },
    {
      "constant": false,
      "inputs": [
        {
          "name": "_motionId",
          "type": "uint256"
        }
      ],
      "name": "finishMotion",
      "outputs": [],
      "payable": false,
      "stateMutability": "nonpayable",
      "type": "function"
    }
  ],
  "bytecode": "0x608060405234801561001057600080fd5b50604051602080610eb18339810180604052810190808051906020019092919050505080600760006101000a81548173ffffffffffffffffffffffffffffffffffffffff021916908373ffffffffffffffffffffffffffffffffffffffff16021790555050610e2d806100846000396000f3006080604052600436106100b9576000357c0100000000000000000000000000000000000000000000000000000000900463ffffffff168062bcb851146100be5780632622038f146101975780632cb0c650146101fc57806343c02d691461022757806355a373d6146102825780635f9bb8e3146102d957806398c07938146102f0578063a3ec138d1461031b578063ae36973b14610376578063b21d36a8146103a3578063b384abef14610504578063f2dc48f01461053b575b600080fd5b3480156100ca57600080fd5b50610195600480360381019080803590602001908201803590602001908080601f016020809104026020016040519081016040528093929190818152602001838380828437820191505050505050919291929080359060200190929190803573ffffffffffffffffffffffffffffffffffffffff169060200190929190803590602001908201803590602001908080601f01602080910402602001604051908101604052809392919081815260200183838082843782019150505050505091929192905050506105a8565b005b3480156101a357600080fd5b506101e2600480360381019080803573ffffffffffffffffffffffffffffffffffffffff169060200190929190803590602001909291905050506106fe565b604051808215151515815260200191505060405180910390f35b34801561020857600080fd5b5061021161072d565b6040518082815260200191505060405180910390f35b34801561023357600080fd5b50610268600480360381019080803573ffffffffffffffffffffffffffffffffffffffff169060200190929190505050610733565b604051808215151515815260200191505060405180910390f35b34801561028e57600080fd5b50610297610753565b604051808273ffffffffffffffffffffffffffffffffffffffff1673ffffffffffffffffffffffffffffffffffffffff16815260200191505060405180910390f35b3480156102e557600080fd5b506102ee610779565b005b3480156102fc57600080fd5b5061030561087c565b6040518082815260200191505060405180910390f35b34801561032757600080fd5b5061035c600480360381019080803573ffffffffffffffffffffffffffffffffffffffff169060200190929190505050610882565b604051808215151515815260200191505060405180910390f35b34801561038257600080fd5b506103a1600480360381019080803590602001909291905050506108a2565b005b3480156103af57600080fd5b506103ce60048036038101908080359060200190929190505050610932565b60405180806020018881526020018773ffffffffffffffffffffffffffffffffffffffff1673ffffffffffffffffffffffffffffffffffffffff1681526020018681526020018060200185815260200184815260200183810383528a818151815260200191508051906020019080838360005b8381101561045c578082015181840152602081019050610441565b50505050905090810190601f1680156104895780820380516001836020036101000a031916815260200191505b50838103825286818151815260200191508051906020019080838360005b838110156104c25780820151818401526020810190506104a7565b50505050905090810190601f1680156104ef5780820380516001836020036101000a031916815260200191505b50995050505050505050505060405180910390f35b34801561051057600080fd5b506105396004803603810190808035906020019092919080359060200190929190505050610ac4565b005b34801561054757600080fd5b5061056660048036038101908080359060200190929190505050610ca9565b604051808273ffffffffffffffffffffffffffffffffffffffff1673ffffffffffffffffffffffffffffffffffffffff16815260200191505060405180910390f35b60056000815480929190600101919050555060e0604051908101604052808581526020018481526020018373ffffffffffffffffffffffffffffffffffffffff16815260200160055481526020018281526020016000815260200160008152506006600060055481526020019081526020016000206000820151816000019080519060200190610639929190610cdc565b506020820151816001015560408201518160020160006101000a81548173ffffffffffffffffffffffffffffffffffffffff021916908373ffffffffffffffffffffffffffffffffffffffff1602179055506060820151816003015560808201518160040190805190602001906106b1929190610cdc565b5060a0820151816005015560c082015181600601559050506005547f23e034838191fb2e6c6b644643ea08a359e38ca6e53c04436530b5b56b54920160405160405180910390a250505050565b60036020528160005260406000206020528060005260406000206000915091509054906101000a900460ff1681565b60055481565b60026020528060005260406000206000915054906101000a900460ff1681565b600760009054906101000a900473ffffffffffffffffffffffffffffffffffffffff1681565b6004600081548092919060010191905055503360016000600454815260200190815260200160002060006101000a81548173ffffffffffffffffffffffffffffffffffffffff021916908373ffffffffffffffffffffffffffffffffffffffff1602179055506001600260003373ffffffffffffffffffffffffffffffffffffffff1673ffffffffffffffffffffffffffffffffffffffff16815260200190815260200160002060006101000a81548160ff0219169083151502179055503373ffffffffffffffffffffffffffffffffffffffff167ffefac6695864350719f7e40b0b42136322607d5e9e9dbfcb1cbaebcfbb60d5c460405160405180910390a2565b60045481565b60006020528060005260406000206000915054906101000a900460ff1681565b6040805190810160405280600481526020017f646f6e6500000000000000000000000000000000000000000000000000000000815250600660008381526020019081526020016000206004019080519060200190610901929190610d5c565b50807ffff3c900d938d21d0990d786e819f29b8d05c1ef587b462b939609625b684b1660405160405180910390a250565b6006602052806000526040600020600091509050806000018054600181600116156101000203166002900480601f0160208091040260200160405190810160405280929190818152602001828054600181600116156101000203166002900480156109de5780601f106109b3576101008083540402835291602001916109de565b820191906000526020600020905b8154815290600101906020018083116109c157829003601f168201915b5050505050908060010154908060020160009054906101000a900473ffffffffffffffffffffffffffffffffffffffff1690806003015490806004018054600181600116156101000203166002900480601f016020809104026020016040519081016040528092919081815260200182805460018160011615610100020316600290048015610aae5780601f10610a8357610100808354040283529160200191610aae565b820191906000526020600020905b815481529060010190602001808311610a9157829003601f168201915b5050505050908060050154908060060154905087565b6000811415610af8576006600083815260200190815260200160002060060160008154809291906001019190505550610b1f565b60066000838152602001908152602001600020600501600081548092919060010191905055505b60016000803373ffffffffffffffffffffffffffffffffffffffff1673ffffffffffffffffffffffffffffffffffffffff16815260200190815260200160002060006101000a81548160ff0219169083151502179055506001600360003373ffffffffffffffffffffffffffffffffffffffff1673ffffffffffffffffffffffffffffffffffffffff168152602001908152602001600020600084815260200190815260200160002060006101000a81548160ff02191690831515021790555060066000838152602001908152602001600020600601546006600084815260200190815260200160002060050154016004541415610c78576040805190810160405280600581526020017f646f696e67000000000000000000000000000000000000000000000000000000815250600660008481526020019081526020016000206004019080519060200190610c76929190610d5c565b505b817ffff3c900d938d21d0990d786e819f29b8d05c1ef587b462b939609625b684b1660405160405180910390a25050565b60016020528060005260406000206000915054906101000a900473ffffffffffffffffffffffffffffffffffffffff1681565b828054600181600116156101000203166002900490600052602060002090601f016020900481019282601f10610d1d57805160ff1916838001178555610d4b565b82800160010185558215610d4b579182015b82811115610d4a578251825591602001919060010190610d2f565b5b509050610d589190610ddc565b5090565b828054600181600116156101000203166002900490600052602060002090601f016020900481019282601f10610d9d57805160ff1916838001178555610dcb565b82800160010185558215610dcb579182015b82811115610dca578251825591602001919060010190610daf565b5b509050610dd89190610ddc565b5090565b610dfe91905b80821115610dfa576000816000905550600101610de2565b5090565b905600a165627a7a72305820b4995db6a265a268dea50d3cd65b1f9ca03f46cadb23224aaea2d1c69020f5320029",
  "source": "// solium-disable linebreak-style\r\npragma solidity >=0.4.2;\r\nimport \"./OwnerToken.sol\";\r\n\r\ncontract Election {\r\n\r\n    mapping(address => bool) public voters;\r\n    mapping(uint => address) public votersByIndex;\r\n    mapping(address => bool) public votersByAddress;\r\n    mapping(address => mapping(uint => bool)) public voters2;\r\n    uint public votersCount;\r\n    uint public motionCount;\r\n\r\n    mapping(uint => Motion) public motions;\r\n\r\n    OwnerToken public tokenContract;\r\n    \r\n    struct Motion {\r\n        string motionName;\r\n        uint amount;\r\n        address addressTo;\r\n        uint motionId;\r\n        string motionState;\r\n        uint voteFor;\r\n        uint voteAgainst;\r\n    }\r\n\r\n    event votedEvent (\r\n        uint indexed _motionId\r\n    );\r\n    event registrationEvent (\r\n        address indexed _registeredAddress\r\n    );\r\n\r\n    event motionEvent (\r\n        uint indexed _motionCount\r\n    );\r\n\r\n\r\n\r\n    function addMotion (string memory _motionName, uint _amount, address _addressTo, string memory _motionState) public {\r\n        motionCount ++;\r\n        motions[motionCount] = Motion(_motionName, _amount, _addressTo, motionCount, _motionState, 0, 0);\r\n\r\n        emit motionEvent(motionCount);\r\n    }\r\n\r\n    function addVoter () public {\r\n        votersCount ++;\r\n        votersByIndex[votersCount] = msg.sender;\r\n        votersByAddress[msg.sender] = true;\r\n\r\n        emit registrationEvent(msg.sender);\r\n    }\r\n\r\n    constructor(OwnerToken _tokenContract) public {\r\n        tokenContract = _tokenContract;\r\n    }\r\n\r\n\r\n\r\n    function vote (uint _motionId, uint _option) public {\r\n        if(_option == 0) {\r\n            motions[_motionId].voteAgainst ++;\r\n        }\r\n        else {\r\n            motions[_motionId].voteFor ++;\r\n        }\r\n\r\n        // record that voter has voted\r\n        voters[msg.sender] = true;\r\n\r\n        voters2[msg.sender][_motionId] = true;\r\n\r\n        if(votersCount == motions[_motionId].voteFor + motions[_motionId].voteAgainst) {\r\n            motions[_motionId].motionState = \"doing\";\r\n        }\r\n\r\n        emit votedEvent(_motionId);\r\n        \r\n    }\r\n\r\n\r\n\r\n    function finishMotion(uint _motionId) public {\r\n        motions[_motionId].motionState = \"done\";\r\n        \r\n        emit votedEvent(_motionId);\r\n    }\r\n}\r\n",
  "sourcePath": "C:\\election_react\\contracts\\Election.sol",
  "compiler": {
    "name": "solc",
    "version": "0.4.24+commit.e67f0147.Emscripten.clang"
  },
  "schemaVersion": "2.0.1",
  "updatedAt": "2019-02-23T01:47:50.336Z"
}